:100000000C9472000C9487000C9487000C94870069
:100010000C9487000C9487000C9487000C94870044
:100020000C9487000C9487000C9487000C94870034
:100030000C9487000C9487000C9487000C94870024
:100040000C9487000C9487000C9487000C94870014
:100050000C9487000C9487000C9487000C94870004
:100060000C9487000C9487000C9487000C948700F4
:100070000C9487000C9487000C9487000C948700E4
:100080000C9487000C9487000C9487000C948700D4
:100090000C9487000C9487000C9487000C948700C4
:1000A0000C9487000C9487000C9487000C948700B4
:1000B0000C9487000C9487000C9487000C948700A4
:1000C0000C9487000C9487000C9487000C94870094
:1000D0000C9487000C9487000C9487000C94870084
:1000E0000C94870011241FBECFEFD1E2DEBFCDBF3D
:1000F00012E0A0E0B2E0EEE0F9E002C005900D925F
:10010000AE30B107D9F70E944F010C9485040C94CE
:10011000000082E08093C00088E18093C10086E007
:100120008093C2008CE08093C4001092C5000895B3
:100130008091C00087FFFCCF8091C6000895909108
:10014000C00095FFFCCF8093C60008950F931F93C6
:10015000CF938C01C0E0F801EC0FF11D8081882362
:1001600021F00E949F00CF5FF6CFCF911F910F919A
:10017000089510927E0086E880937A0010927B00AA
:1001800080E480937C0008958770806480937C0075
:1001900086EA8A95F1F700C080917A0080648093A6
:1001A0007A0080917A0086FFFCCF86EA8A95F1F783
:1001B00000C0209178008091790090E0982F8827E6
:1001C000820F911D08951098089A80EA8A95F1F798
:1001D000089894E19A95F1F780B19CE89A95F1F727
:1001E000817008951098089A00008111089884E1A0
:1001F0008A95F1F7089808951098089A00000898D1
:1002000084E08A95F1F700C080B19FE09A95F1F7FC
:1002100081700895CF93DF93D82FC9E0C15031F09A
:100220008D2F81700E94F200D695F8CFDF91CF918B
:100230000895CF93DF93D9E0C0E0D15049F00E94F8
:10024000FC0020E8829FC0011124C695C82BF5CF81
:100250008C2FDF91CF910895CF93F8940E94E30003
:100260008CEC0E940A0184E40E940A010E94FC00B6
:100270008823E1F30E94E3008CEC0E940A018EEBDC
:100280000E940A010E941901C82F0E941901789446
:1002900090E0982F88278C0F911DCF910895CF93D0
:1002A000DF93CDB7DEB7E2970FB6F894DEBF0FBE8F
:1002B000CDBF0E9489000E94B90087EA91E60197AC
:1002C000F1F700C00000789480E0E82E82E0F82E7C
:1002D0008E010F5F1F4F0E94980083EC99E00197F9
:1002E000F1F700C0000080E00E94C400D82EC92EA3
:1002F00081E00E94C400B82EA92E82E00E94C400B2
:10030000982E892E0E942C018F929F92AF92BF92BD
:10031000CF92DF929F938F93FF92EF921F930F9351
:100320000E949B01C8010E94A6000FB6F894DEBF90
:100330000FBECDBFD0CFAEE0B0E0E1EAF1E00C946B
:100340005C040D891E8986E08C831A8309838FEFF4
:100350009FE79E838D83AE01475E5F4F6F89788DE7
:10036000CE0101960E94BD01EF81F885E00FF11FDB
:1003700010822E96E4E00C947804ABE0B0E0E3EC5D
:10038000F1E00C944E046C017B018A01FC011782A0
:100390001682838181FFCCC1CE0101963C01F6011A
:1003A0009381F70193FD859193FF81917F018823CC
:1003B00009F4BAC1853239F493FD859193FF819197
:1003C0007F01853229F4B60190E00E94B403E7CFA3
:1003D000912C212C312CFFE1F315D8F08B3279F0E0
:1003E00038F4803279F08332A1F4232D20611DC0CE
:1003F0008D3261F0803369F4232D216016C0832D86
:100400008260382EE32DE4603E2E2AC0F32DF86082
:100410001DC037FC2DC020ED280F2A3040F08E3251
:10042000B9F436FC81C1232D2064322E19C036FE6A
:1004300006C08AE0989E200D1124922E11C0EAE099
:100440002E9E200D1124222EF32DF0623F2E08C087
:100450008C3621F4832D8068382E02C0883641F412
:10046000F70193FD859193FF81917F018111B3CFB6
:10047000982F9F7D9554933028F40C5F1F4F9FE376
:1004800099830DC0833631F0833771F0833509F0DD
:1004900059C021C0F801808189830E5F1F4F8824D5
:1004A0008394912C530113C02801F2E04F0E511C8C
:1004B000F801A080B18036FE03C0692D70E002C053
:1004C0006FEF7FEFC5010E94A9034C018201F32D5C
:1004D000FF773F2E16C0280122E0420E511CF80182
:1004E000A080B18036FE03C0692D70E002C06FEFBE
:1004F0007FEFC5010E949E034C01F32DF0683F2E53
:10050000820133FC1BC0822D90E088169906B0F45E
:10051000B60180E290E00E94B4032A94F4CFF50182
:1005200037FC859137FE81915F01B60190E00E9412
:10053000B40321102A9421E0821A910881149104B5
:1005400071F7E8C0843611F0893641F5F80137FEBD
:1005500007C060817181828193810C5F1F4F08C049
:1005600060817181072E000C880B990B0E5F1F4F65
:10057000F32DFF763F2E97FF09C0909580957095DB
:1005800061957F4F8F4F9F4FF0683F2E2AE030E0FC
:10059000A3010E94F003882E861845C0853731F4E8
:1005A000232D2F7EB22E2AE030E025C0932D997F97
:1005B000B92E8F36C1F018F4883579F0B5C0803780
:1005C00019F0883721F0B0C0E92FE061BE2EB4FEEB
:1005D0000DC0FB2DF460BF2E09C034FE0AC0292FC8
:1005E0002660B22E06C028E030E005C020E130E0F1
:1005F00002C020E132E0F801B7FE07C060817181DE
:10060000828193810C5F1F4F06C06081718180E001
:1006100090E00E5F1F4FA3010E94F003882E861802
:10062000FB2DFF773F2E36FE0DC0232D2E7FA22EF1
:10063000891458F434FE0BC032FC09C0832D8E7E21
:10064000A82E05C0B82CA32C03C0B82C01C0B92C0F
:10065000A4FE0FC0FE01E80DF11D8081803321F45E
:100660009A2D997EA92E09C0A2FE06C0B394B39418
:1006700004C08A2D867809F0B394A3FC11C0A0FEB3
:1006800006C0B21488F4280C922C9B180EC0B21429
:1006900060F4B60180E290E00E94B403B394F7CF17
:1006A000B21418F42B1802C0982C212CA4FE10C0F0
:1006B000B60180E390E00E94B403A2FE17C0A1FC43
:1006C00003C088E790E002C088E590E0B6010CC066
:1006D0008A2D867859F0A1FE02C08BE201C080E22B
:1006E000A7FC8DE2B60190E00E94B403891438F4AF
:1006F000B60180E390E00E94B4039A94F7CF8A9405
:10070000F301E80DF11D8081B60190E00E94B40371
:100710008110F5CF222009F442CEB60180E290E0AC
:100720000E94B4032A94F6CFF6018681978102C015
:100730008FEF9FEF2B96E2E10C946A04FC01059089
:10074000615070400110D8F7809590958E0F9F1FD3
:100750000895FC016150704001900110D8F7809518
:1007600090958E0F9F1F08950F931F93CF93DF9344
:10077000FB01238121FD03C08FEF9FEF2CC022FFDF
:1007800016C046815781248135814217530744F4AE
:10079000A081B1819D012F5F3F4F318320838C93D6
:1007A000268137812F5F3F4F3783268314C08B010B
:1007B000EC01FB010084F185E02D0995892BE1F620
:1007C000D80116968D919C911797019617969C9338
:1007D0008E931697CE01DF91CF911F910F910895BF
:1007E000FA01AA27283051F1203181F1E8946F9362
:1007F0006E7F6E5F7F4F8F4F9F4FAF4FB1E03ED008
:10080000B4E03CD0670F781F891F9A1FA11D680FA5
:10081000791F8A1F911DA11D6A0F711D811D911DD8
:10082000A11D20D009F468943F912AE0269F11244D
:100830003019305D3193DEF6CF010895462F4770B1
:10084000405D4193B3E00FD0C9F7F6CF462F4F700C
:10085000405D4A3318F0495D31FD4052419302D06A
:10086000A9F7EACFB4E0A695979587957795679510
:10087000BA95C9F700976105710508959B01AC0110
:100880000A2E06945795479537952795BA95C9F737
:10089000620F731F841F951FA01D08952F923F9212
:1008A0004F925F926F927F928F929F92AF92BF9280
:1008B000CF92DF92EF92FF920F931F93CF93DF932C
:1008C000CDB7DEB7CA1BDB0B0FB6F894DEBF0FBE89
:1008D000CDBF09942A88398848885F846E847D84D6
:1008E0008C849B84AA84B984C884DF80EE80FD80D8
:1008F0000C811B81AA81B981CE0FD11D0FB6F8944E
:0E090000DEBF0FBECDBFED010895F894FFCF0E
:0E090E0025642025642025642025640A0D0040
:00000001FF
